:020000040800F2
:10000000000001205D4900081D15000825150008A5
:1000100027150008291500082B150008000000000E
:100020000000000000000000000000002D15000886
:100030002F150008000000003115000833150008D6
:10004000AD490008AD490008AD490008AD490008B8
:10005000AD490008AD490008AD490008AD490008A8
:10006000AD490008AD4900083B150008AD4900083E
:10007000AD490008AD490008AD490008AD49000888
:10008000AD490008AD490008AD4900080000000076
:1000900000000000000000000000000045150008FE
:1000A000AD4900085115000861150008AD49000868
:1000B000AD490008AD490008AD490008AD49000848
:1000C000AD490008AD490008AD490008AD49000838
:1000D000AD490008AD490008AD4900080000000026
:1000E000AD490008AD490008AD4900080000000016
:1000F000000000000000000000000000AD49000802
:1001000000000000AD490008AD490008AD490008F5
:1001100000000000000000000000000000000000DF
:1001200071150008AD490008AD490008AD49000847
:10013000AD490008000000000000000000000000C1
:10014000000000000000000000000000AD490008B1
:10015000AD490008AD490008AD490008AD490008A7
:10016000AD490008AD490008000000000000000093
:10017000000000000000000000000000000000007F
:1001800000000000AD490008000000000000000071
:04019000AD4900086D
:1001A00001F0FF01102A2BDB10F0070F08D010F828
:1001B000013B013A8B422DD010F0070F42B3F6D12C
:1001C000F0B441EA012141EA014122F007047FF045
:1001D00000070023F0E80256083C85EA010586EA9C
:1001E000010685FA47F5A3FA87F586FA47F6A5FAD8
:1001F00087F68EB9EED1F0BC01F0FF0102F00702E4
:1002000032B110F8013B013A83EA010313B1F8D18E
:100210000020704701387047002D06BF354603386F
:10022000073815F0010F07D1013015F4807F02BFA8
:10023000013015F4C03F0130F0BC0138704700BFF9
:1002400081F0004102E000BF83F0004330B54FEA87
:1002500041044FEA430594EA050F08BF90EA020FF4
:100260001FBF54EA000C55EA020C7FEA645C7FEA87
:10027000655C00F0E2804FEA5454D4EB5555B8BFAA
:100280006D420CDD2C4480EA020281EA030382EA1B
:10029000000083EA010180EA020281EA0303362DAD
:1002A00088BF30BD11F0004F4FEA01314FF4801C80
:1002B0004CEA113102D0404261EB410113F0004F92
:1002C0004FEA03334CEA133302D0524263EB430349
:1002D00094EA050F00F0A780A4F10104D5F1200EE7
:1002E0000DDB02FA0EFC22FA05F2801841F1000142
:1002F00003FA0EF2801843FA05F359410EE0A5F116
:1003000020050EF1200E012A03FA0EFC28BF4CF046
:10031000020C43FA05F3C01851EBE37101F00045FC
:1003200007D54FF0000EDCF1000C7EEB00006EEB09
:100330000101B1F5801F1BD3B1F5001F0CD3490893
:100340005FEA30004FEA3C0C04F101044FEA4452EA
:1003500012F5800F80F09A80BCF1004F08BF5FEA71
:10036000500C50F1000041EB045141EA050130BD51
:100370005FEA4C0C404141EB0101013C28BFB1F563
:10038000801FE9D291F0000F04BF01460020B1FAAE
:1003900081F308BF2033A3F10B03B3F120020CDA81
:1003A0000C3208DD02F1140CC2F10C0201FA0CF05F
:1003B00021FA02F10CE002F11402D8BFC2F1200CC4
:1003C00001FA02F120FA0CFCDCBF41EA0C0190407A
:1003D000E41AA2BF01EB0451294330BD6FEA0404C3
:1003E0001F3C1CDA0C340EDC04F11404C4F12002AE
:1003F00020FA04F001FA02F340EA030021FA04F3C0
:1004000045EA030130BDC4F10C04C4F1200220FA16
:1004100002F001FA04F340EA0300294630BD21FA54
:1004200004F0294630BD94F0000F83F4801306BF1A
:1004300081F480110134013D4EE77FEA645C18BF0E
:100440007FEA655C29D094EA050F08BF90EA020FA5
:1004500005D054EA000C04BF1946104630BD91EA9D
:10046000030F1EBF0021002030BD5FEA545C05D1A0
:100470004000494128BF41F0004130BD14F58004DF
:100480003CBF01F5801130BD01F0004545F0FE4153
:1004900041F470014FF0000030BD7FEA645C1ABF88
:1004A000194610467FEA655C1CBF0B46024650EABF
:1004B000013406BF52EA033591EA030F41F40021EB
:1004C00030BD00BF90F0000F04BF0021704730B571
:1004D0004FF4806404F132044FF000054FF0000146
:1004E00050E700BF90F0000F04BF0021704730B507
:1004F0004FF4806404F1320410F0004548BF4042DC
:100500004FF000013EE700BF42004FEAE2014FEA30
:1005100031014FEA02701FBF12F07F4393F07F4F0B
:1005200081F06051704732F07F4208BF704793F00E
:100530007F4F04BF41F40021704730B54FF4607421
:1005400001F0004521F000411CE700BF50EA010224
:1005500008BF704730B54FF000050AE050EA0102CD
:1005600008BF704730B511F0004502D5404261EB3D
:1005700041014FF4806404F132045FEA915C3FF47E
:10058000D8AE4FF003025FEADC0C18BF03325FEA1B
:10059000DC0C18BF033202EBDC02C2F1200300FACC
:1005A00003FC20FA02F001FA03FE40EA0E0021FAF1
:1005B00002F11444BDE600BF70B54FF0FF0C4CF4DF
:1005C000E06C1CEA11541DBF1CEA135594EA0C0F91
:1005D00095EA0C0F00F0DEF82C4481EA030621EACC
:1005E0004C5123EA4C5350EA013518BF52EA033507
:1005F00041F4801143F4801338D0A0FB02CE4FF0B9
:100600000005E1FB02E506F00042E0FB03E54FF0E8
:100610000006E1FB03569CF0000F18BF4EF0010EE0
:10062000A4F1FF04B6F5007F64F5407404D25FEADC
:100630004E0E6D4146EB060642EAC62141EA55518F
:100640004FEAC52040EA5E504FEACE2EB4F1FD0CD1
:1006500088BFBCF5E06F1ED8BEF1004F08BF5FEA4F
:10066000500E50F1000041EB045170BD06F0004601
:1006700046EA010140EA020081EA0301B4EB5C04AE
:10068000C2BFD4EB0C0541EA045170BD41F48011A6
:100690004FF0000E013C00F3AB8014F1360FDEBFCB
:1006A000002001F0004170BDC4F10004203C35DAA7
:1006B0000C341BDC04F11404C4F1200500FA05F32A
:1006C00020FA04F001FA05F240EA020001F00042CB
:1006D00021F0004110EBD37021FA04F642EB060141
:1006E0005EEA430E08BF20EAD37070BDC4F10C046B
:1006F000C4F1200500FA04F320FA05F001FA04F22F
:1007000040EA020001F0004110EBD37041F100011A
:100710005EEA430E08BF20EAD37070BDC4F1200525
:1007200000FA05F24EEA020E20FA04F301FA05F28D
:1007300043EA020321FA04F001F0004121FA04F235
:1007400020EA020000EBD3705EEA430E08BF20EA05
:10075000D37070BD94F0000F0FD101F0004640003F
:1007600041EB010111F4801F08BF013CF7D041EAC1
:10077000060195F0000F18BF704703F000465200C5
:1007800043EB030313F4801F08BF013DF7D043EA96
:100790000603704794EA0C0F0CEA135518BF95EA4C
:1007A0000C0F0CD050EA410618BF52EA4306D1D1D3
:1007B00081EA030101F000414FF0000070BD50EAF2
:1007C000410606BF1046194652EA430619D094EA7C
:1007D0000C0F02D150EA013613D195EA0C0F05D166
:1007E00052EA03361CBF104619460AD181EA0301BA
:1007F00001F0004141F0FE4141F470014FF0000072
:1008000070BD41F0FE4141F4780170BD70B54FF00C
:10081000FF0C4CF4E06C1CEA11541DBF1CEA13558C
:1008200094EA0C0F95EA0C0F00F0A7F8A4EB05046E
:1008300081EA030E52EA03354FEA013100F0888065
:100840004FEA03334FF0805545EA131343EA12632E
:100850004FEA022245EA111545EA10654FEA0026E3
:100860000EF000419D4208BF964244F1FD0404F59C
:10087000407402D25B084FEA3202B61A65EB0305F8
:100880005B084FEA32024FF480104FF4002CB6EBB5
:10089000020E75EB030E22BFB61A754640EA0C0035
:1008A0005B084FEA3202B6EB020E75EB030E22BF75
:1008B000B61A754640EA5C005B084FEA3202B6EBB6
:1008C000020E75EB030E22BFB61A754640EA9C0075
:1008D0005B084FEA3202B6EB020E75EB030E22BF45
:1008E000B61A754640EADC0055EA060E18D04FEA03
:1008F000051545EA16754FEA06164FEAC30343EAA3
:1009000052734FEAC2025FEA1C1CC0D111F4801F6F
:100910000BD141EA00014FF000004FF0004CB6E768
:1009200011F4801F04BF01430020B4F1FD0C88BF07
:10093000BCF5E06F3FF6AFAEB5EB030C04BFB6EB12
:10094000020C5FEA500C50F1000041EB045170BD05
:100950000EF0004E4EEA113114EB5C04C2BFD4EB32
:100960000C0541EA045170BD41F480114FF0000EB6
:10097000013C90E645EA060E8DE60CEA135594EA32
:100980000C0F08BF95EA0C0F3FF43BAF94EA0C0F35
:100990000AD150EA01347FF434AF95EA0C0F7FF4AA
:1009A00025AF104619462CE795EA0C0F06D152EAFE
:1009B00003353FF4FDAE1046194622E750EA4106E2
:1009C00018BF52EA43067FF4C5AE50EA41047FF4F3
:1009D0000DAF52EA43057FF4EBAE12E74A0011D2A5
:1009E00012F5001211D20DD56FF47873B3EB625289
:1009F0000ED44FEAC12343F0004343EA505323FA95
:100A000002F070474FF00000704750EA013002D109
:100A10004FF0FF3070474FF00000704753B94AB9AC
:100A2000002908BF00281CBF4FF0FF314FF0FF30F6
:100A300000F00CB8ADF1080C6DE904CE04F072FCC6
:100A4000DDF804E0DDE9022304B07047704700BF21
:100A500010B5054C237833B9044B13B10448AFF3F8
:100A600000800123237010BD7000002000000000F2
:100A7000E055000808B5034B1BB103490348AFF329
:100A8000008008BD0000000074000020E055000850
:100A9000F0B58BB005AD0024059406940794089436
:100AA000099401942A4B1A6B42F004021A631A6BE0
:100AB00002F004020192019A02941A6B42F0800241
:100AC0001A631A6B02F080020292029A03941A6B64
:100AD00042F001021A631A6B02F001020392039AB8
:100AE00004941A6B42F002021A631B6B03F00203B8
:100AF0000493049B174F22464FF46041384602F09E
:100B00009EF94FF4604305930126069607940894D6
:100B10002946384602F0A8F8302305934FF4041311
:100B20000693079629460C4802F09EF82246314665
:100B30000A2001F06DFE0A2001F07AFE22463146BD
:100B4000172001F065FE172001F072FE0BB0F0BD1A
:100B500000380240000802400004024000B583B0A3
:100B600000210191094B1A6B42F480021A631B6B3E
:100B700003F480030193019B0A46382001F048FEEC
:100B8000382001F055FE03B05DF804FB0038024048
:100B900072B6FEE700B58FB000230A930B930C9357
:100BA0000D93089309930193029303930493059380
:100BB000069307931F48204A02609F224260836089
:100BC00040F2E732C26003618023836103F0B2FA2E
:100BD00028BB4FF480530A930AA9164803F003FC7C
:100BE000F8B9144803F0D2FAE8B90023089309933E
:100BF00008A9104803F072FEB8B9602301930023DE
:100C00000293039305930C2201A90A4803F070FB99
:100C100068B9084800F038FC0FB05DF804FBFFF736
:100C2000B7FFFFF7B5FFFFF7B3FFFFF7B1FFFFF720
:100C3000AFFF00BF1C0100200008004008B50A48B3
:100C40000A4B03600A4B436000238360C3604FF488
:100C50008042026143618361C361036202F004FB6D
:100C600000B908BDFFF794FFAC010020005400401C
:100C7000A086010000B585B0002300930193029384
:100C800003931A481A4A02604FF44032426083606C
:100C900001220261027680F82030C3621549816228
:100CA000C3600223C36180F83020426101F068FB19
:100CB000B0B90023009301230193072302936946EF
:100CC0000A4801F087FC68B90123009302230193CD
:100CD0006946064801F07EFC30B905B05DF804FBBA
:100CE000FFF756FFFFF754FFFFF752FF60020020A7
:100CF000002001400100000F10B58CB003AC24228D
:100D00000021204603F08AFE00230193029310483D
:100D10004FF080420260436083604FF0FF32C26058
:100D2000036183610123039305930993214603F033
:100D300059FA48B900230193029301A9044803F02A
:100D4000CDFD18B90CB010BDFFF722FFFFF720FF53
:100D50006401002000B589B000230193029303933E
:100D600004930593069307931448154A0260436061
:100D700083604FF6FF72C26003618023836103F0DA
:100D8000D9F9A0B90D4803F001FA90B96023019395
:100D9000002202920392059201A9084803F0A8FAE2
:100DA00048B9064800F070FB09B05DF804FBFFF796
:100DB000EFFEFFF7EDFEFFF7EBFE00BFD4000020D3
:100DC0000044014008B50948094B03601F234360F4
:100DD000002383604FF6FF72C2600361802383614A
:100DE00003F0A8F900B908BDFFF7D2FE8C0000207F
:100DF0000048014010B594B008AC302200212046D4
:100E000003F00CFE002303930493059306930793CA
:100E10000193214A116C41F080511164126C02F06F
:100E200080520192019A02931C4A136823F44043B2
:100E300043F400431360136803F440430293029B9E
:100E4000012308934FF48033099302230E934FF448
:100E500080020F9219221092A02211921293042361
:100E60001393204602F048FC88B90F230393022114
:100E70000491002305934FF480520692079303A830
:100E800002F090FE28B902F033FE14B010BDFFF757
:100E90007FFEFFF77DFE00BF00380240007000407B
:100EA00008B501F093F9FFF7A5FFFFF7F1FDFFF794
:100EB00055FEFFF76FFEFFF7C1FEFFF7DBFEFFF702
:100EC0001BFFFFF747FFFFF77DFF01F0B7F8FEE7D5
:100ED00000B583B084464171024652F8050B4FF0CD
:100EE000FF33009301239CF8041002F09BFA03B037
:100EF0005DF804FB08B50160520042F0400252B2B6
:100F000042EA830252B29DF8083042EAC3020271FB
:100F100000214171FFF7DCFF08BD000000B587B07C
:100F20008DF817004FF0FF330293012301930DF169
:100F30001702009200227821024802F02DFB07B030
:100F40005DF804FBAC01002000B585B04FF0FF3325
:100F5000029389B201910090012340227821034835
:100F600002F01AFB05B05DF804FB00BFAC010020E5
:100F700008B530B900214FF48062034803F04EFDFC
:100F800008BDFF21F7E700BFB002002010B5002424
:100F900012E0A4F15000C0B2FFF7C0FF0020FFF73D
:100FA000BDFF1020FFF7BAFF8021054800EBC410F9
:100FB000FFF7CAFF0134E4B2072CEAD910BD00BF25
:100FC000B002002010F0800F1FD13F291DD810B4AF
:100FD000012A0FD0CB0800EBC3100C4C225C01F0AF
:100FE000070101238B40DB435BB2134023545DF8C0
:100FF000044B7047CB0800EBC310044C235C01F09A
:1010000007018A4013432354F1E77047B0020020E0
:101010002DE9F04784B0814604A800E90E009DF850
:101020003080A9F12003DBB25E2B46D8274B1B880A
:101030009DF804603344802B43DC244B5B889DF88F
:1010400005A05344402B3EDC00251FE01F4B1888B1
:10105000598829442044B8FA88F25209C9B2C0B26A
:10106000FFF7B0FF0134A6420FD907FA04F313F4D7
:10107000004FEBD0154B188859882944204442462C
:10108000C9B2C0B2FFF79EFFECE70135AA4508D907
:10109000A9F1200303FB0A53029A32F813700024CB
:1010A000E1E70A4B1A88039B13B14B4413F8206CF9
:1010B0009319064A1380484600E0002004B0BDE8BA
:1010C000F0870020FAE70020F8E700BFA802002020
:1010D00030B587B0044606A800E90E009DF82850F8
:1010E00000E00134207848B1009506AB13E90E000A
:1010F000FFF78EFF034620788342F2D007B030BD61
:10110000014B188059807047A802002010B5044692
:101110008120FFF703FF2046FFF700FF10BD00000E
:1011200008B530B1054B01225A71AF20FFF7F6FE2A
:1011300008BD024B00225A71AE20F7E7A80200203A
:1011400008B5642001F06EF80020FFF7E9FF2020C9
:10115000FFF7E4FE0020FFF7E1FEB020FFF7DEFE20
:10116000C820FFF7DBFE0020FFF7D8FE1020FFF7B6
:10117000D5FE4020FFF7D2FEFF20FFF7C7FFA120DA
:10118000FFF7CCFEA620FFF7C9FEA820FFF7C6FE9A
:101190003F20FFF7C3FEA420FFF7C0FED320FFF7D8
:1011A000BDFE0020FFF7BAFED520FFF7B7FEF02006
:1011B000FFF7B4FED920FFF7B1FE2220FFF7AEFE05
:1011C000DA20FFF7ABFE1220FFF7A8FEDB20FFF7C7
:1011D000A5FE2020FFF7A2FE8D20FFF79FFE142022
:1011E000FFF79CFE0120FFF79BFF0020FFF7C0FEEA
:1011F000FFF7CCFE034B00221A805A8001221A719D
:1012000008BD00BFA802002082B0002100910B4B56
:101210005A6C42F480425A645A6C02F48042009242
:10122000009A01911A6C42F080521A641B6C03F010
:1012300080530193019B02B0704700BF0038024009
:1012400030B589B000230393049305930693079365
:10125000026803F1804303F590339A4201D009B04C
:1012600030BD04460025019503F58C335A6C42F4D9
:1012700080725A645A6C02F480720192019A02954B
:101280001A6B42F001021A631B6B03F00103029315
:10129000029B03230393049303A9104801F0E4FC89
:1012A0000F48104B036045608560C5604FF4806354
:1012B00003614FF4805343614FF4804383614FF4E3
:1012C0008073C3610562456201F046FB18B9044BA7
:1012D000A3639C63C3E7FFF75BFCF8E700000240F1
:1012E000000200201064024030B589B0002303934F
:1012F00004930593069307930268144B9A4201D016
:1013000009B030BD00250195114C236B43F0020359
:101310002363236B03F002030193019BC023039318
:1013200012230493032306930423079303A9094874
:1013300001F09AFC0295236C43F400132364236CA0
:1013400003F400130293029BDAE700BF005400404D
:101350000038024000040240F0B589B00023039336
:1013600004930593069307930368B3F1804F01D06C
:1013700009B0F0BD0025009503F50E331A6C42F05C
:1013800001021A641A6C02F001020092009A01959F
:101390001A6B42F001021A631A6B02F00102019209
:1013A000019A02951A6B42F002021A631B6B03F05A
:1013B00002030293029B4FF4004303930227049716
:1013C00001240594079403AE3146074801F04CFC14
:1013D0000823039304970594069507943146034820
:1013E00001F042FCC4E700BF0000024000040240DC
:1013F00000B585B00368204A934208D01F4A934243
:1014000012D01F4A934223D005B05DF804FB00239D
:1014100001931C4B1A6C42F004021A641B6C03F01B
:1014200004030193019BEFE700210291154B5A6CD5
:1014300042F400325A645B6C03F400330293029B63
:101440000A46192001F0E4F9192001F0F1F9DBE76F
:10145000002103910B4B5A6C42F480225A645B6C5E
:1014600003F480230393039B0A461A2001F0D0F96A
:101470001A2001F0DDF9C7E70008004000440140F0
:10148000004801400038024000B589B000230393B2
:10149000049305930693079303681C4A934205D06F
:1014A0001B4A934219D009B05DF804FB0023019355
:1014B000184B1A6B42F002021A631B6B03F0020313
:1014C0000193019B4FF4007303930223049307934A
:1014D00003A9114801F0C8FBE5E7002302930D4B77
:1014E0001A6B42F002021A631B6B03F002030293B1
:1014F000029B4FF480730393022304930323079307
:1015000003A9054801F0B0FBCDE700BF000800408B
:1015100000440140003802400004024008B502F0D7
:1015200009FCFEE7FEE7FEE7FEE7FEE770477047CF
:10153000704708B500F064FE08BD08B5102001F042
:1015400085FC08BD08B5202001F080FC08BD000026
:1015500008B5024802F0E9FC08BD00BFD400002035
:1015600008B5024802F0E1FC08BD00BF8C00002075
:1015700008B5024801F08AFA08BD00BF0002002049
:1015800010B503460C4A0D490D48006840B10C489F
:1015900000680344521A934206D8094A136010BDEA
:1015A0000748084C0460F2E703F040FA0C2303609C
:1015B0004FF0FF30F3E700BF0000012000040000FF
:1015C000B006002060080020034AD2F8883043F4B7
:1015D0007003C2F88830704700ED00E02DE9F0415B
:1015E00086B0884B1B685D6A2EB20020FFF7C0FCF6
:1015F000854B1B781BB1854B1B78002B44D0834B4C
:101600001C78002C00F087817F4B1B783BB1804A0F
:10161000137883F0010313707B4B00221A707D4B0B
:10162000B3F90030B34211D015F0010F0ED1784A52
:1016300012785AB9B34232DA774A13680133136029
:1016400000F0EAFD754B1860724B1E80724B1B68F0
:10165000012B29D0022B00F0B2806F4B01221A60BF
:1016600000F0DAFD6D4B1B68C01A42F2107398420D
:1016700005D9664B00221A70674B01221A60FFF7EA
:1016800085FC06B0BDE8F081604B01221A7000F0C5
:10169000C3FD624B18605C4B00221A70AFE75E4AD4
:1016A0001368013B1360CBE75D4B1A885D4BA3FBCE
:1016B00002139B095C4901FB03225C4981FB020187
:1016C000D217C2EB611292B20092594A0A2103A8C2
:1016D00003F06EF90023184600E00133092B09DC02
:1016E00003F118026A4412F80C2C002AF5D00130DC
:1016F000C0B2F2E7C0F10800C000202100F0F800FD
:10170000FFF7FEFC4B4B012200920ECB03A8FFF724
:10171000DFFC404BB3F90030B34213D015F0010F9A
:1017200010D13B4A12786AB1B34222DAF31A3C492B
:1017300003EB830303EB83030A8802EB43030B8071
:10174000344B1E8000F068FD344B1B68C01AB0F5A6
:10175000FA7F02D32E4B1B78C3B900211920FFF763
:10176000CFFC354B012200920ECB3448FFF7B0FC82
:1017700076E79B1B2A49C3EB832203EB8202C3EB70
:10178000C2030A8802EB43030B80D9E7002119202A
:10179000FFF7B6FC284B002200920ECB2748FFF73C
:1017A00097FC00F039FD1D4B1B68C01AB0F57A7F1D
:1017B000FFF456AF00F030FD184B186050E70021E1
:1017C0001920FFF79DFC1C4B012200920ECB1C48F8
:1017D000FFF77EFC1B4B1B881B4A0A2103A803F062
:1017E000E7F80023184600E00133092B2EDC03F153
:1017F00018026A4412F80C2C002AF5D00130C0B24D
:10180000F2E700BF64010020F5060020D4060020A6
:10181000CC060020CA06002004000020D0060020CC
:10182000FA060020D34D621018FCFFFF1F85EB5114
:10183000D0760008F855000804560008D87600084D
:10184000E0760008FE060020E8760008C0F10800F7
:10185000C000202100F0F800FFF752FC614B01228C
:1018600000920ECB03A8FFF733FC5F4BB3F90030B7
:10187000B34213D015F0010F10D15C4A12786AB14F
:10188000B34222DAF31A5A4903EB830303EB8303CF
:101890000A8802EB43030B80534B1E8000F0BCFC14
:1018A000544B1B68C01AB0F5FA7F02D34F4B1B781C
:1018B000C3B900211920FFF723FC4F4B01220092EE
:1018C0000ECB4E48FFF704FCCAE69B1B4849C3EB0E
:1018D000832203EB8202C3EBC2030A8802EB4303B9
:1018E0000B80D9E700211920FFF70AFC424B0022A8
:1018F00000920ECB4148FFF7EBFB00F08DFC3D4B17
:101900001B68C01AB0F57A7FFFF4AAAE00F084FC21
:10191000384B1860A4E600210846FFF7F1FB03AE40
:10192000374B1B78374A0A21304603F041F8324DD5
:101930004FF00108CDF8008095E80E003046FFF723
:10194000C7FB00213520FFF7DBFB2F4F3B7803F06F
:101950000303013B2D4A52F823200A21304603F0AD
:1019600027F8CDF8008095E80E003046FFF7B0FB71
:101970003B7813F0040F08D1254D2B68254A0A2126
:1019800003A803F015F82B6819E000215F20FFF78A
:10199000B7FB1E4B9A680A21304603F009F8164B34
:1019A000CDF800800ECB3046FFF792FBE4E7013420
:1019B000E4B2194A82FB0312DB17C3EBA203002B2C
:1019C000F5DCC4F10800C000232100F0F800FFF7A7
:1019D00097FB044B012200920ECB03A8FFF778FB84
:1019E0004DE600BFF8550008CA060020CC060020CE
:1019F000FE060020D006002004560008E07600080D
:101A000008000020F0760008E90600200C00002005
:101A1000EC060020F47600086766666638B5C828CC
:101A200015D8044670B10B4D0021284602F0DCFDAC
:101A30002B68DA6A02FB04F4074AA2FB0424A40917
:101A40005C6338BD0021034802F078FEF9E7C82442
:101A5000E9E700BFD40000201F85EB510000000023
:101A6000D0B52DED028B3C4B1A783C4B1A803C4B89
:101A70001B7813F0040F0DD13A4B1B781BB13A4B76
:101A80001B78042B48D0354B1878FFF7C7FFBDEC07
:101A9000028BD0BD354BD3ED007A9FED357A87EEC2
:101AA000278A00F0B9FB334B1B68C01AFCEEC87ADA
:101AB00017EE903A984208D300F0AEFB2D4B186019
:101AC000254B1A78254B1A80D6E700F0A5FB294B49
:101AD0001C68041B284B187807EE900AF8EE677A0A
:101AE00017EE900AFEF710FD0022244BFEF78EFE43
:101AF00006460F4618EE100AFEF706FD32463B4634
:101B0000FEF75AFDFEF76AFF80B28442B4D31C4B45
:101B10001A78124B1A80AFE71A4BD3ED007AF8EE21
:101B2000677A0E4C238807EE103AB8EEC77A67EE54
:101B3000277A17EE900AFEF7E7FC05A3D3E9002306
:101B4000FEF764FEFEF74AFF20809CE7AFF30080BB
:101B50000000000000FEAF400D070020C806002076
:101B6000E9060020F40600200800002004070020F9
:101B700000007A44C40600200007002000005940FD
:101B80000C070020EC060020044BB3FBF0F0044BE4
:101B90001A680138D062D860704700BF40420F0019
:101BA0001C010020054B1A68D36A00FB03F30449AB
:101BB000A1FB03135B09013B136470471C01002068
:101BC0001F85EB517047000070B5044623BB0D46DE
:101BD00016461A4B1B781BB300F01EFB184B1B68F4
:101BE000C01AB04224D2291B07EE901AF8EEE76A19
:101BF00007EE906AF8EE677A86EEA77A07EE900A0B
:101C0000F8EE677A67EE277AFDEEE77A17EE903AFC
:101C100014FA83F398B202E0084B00221A7070BDE8
:101C200000F0FAFA064B1860044B01221A70D3E751
:101C3000024B00221A702846F1E700BFC0060020C0
:101C4000BC06002008B502681A4B9A4200D008BDB5
:101C50002021194801F0ECF878B9184B1B7843B1F2
:101C6000012B0DD1164B01221A70144B02221A704F
:101C700006E0124B01221A7002E0104B00221A708B
:101C800010210D4801F0D4F878B90E4B1B7843B100
:101C9000012BDCD10C4B01221A700A4B02221A7064
:101CA000D5E7084B01221A70D1E7064B00221A70C3
:101CB000CDE700BF0048014000040240BA06002002
:101CC000F6060020B9060020F506002038B581B9D7
:101CD00005460C460E4B1B7883B100F09DFA0D4B68
:101CE0001B68C31AAB4211D3094B00221A700120A2
:101CF00038BD074B00221A700120F9E700F08CFA7A
:101D0000044B1860024B01221A70E6E72046EFE709
:101D1000B8060020B406002008B5144B1B78022B2F
:101D20000DD0124B1B78042B10D0114A1268322AA6
:101D300019D8104A1078012811D0002014E0202171
:101D40000D4801F075F80128EBD103E00B4A127839
:101D5000012AEAD1094B00221A70012004E0042B69
:101D600002D0002000E0002008BD00BF08000020D5
:101D7000EC060020F406002000040240F6060020D5
:101D800008B5154B1B78022B0FD0134B1B78042B77
:101D900016D0124A116840F60A62914219D9104AC7
:101DA0001078012811D0002014E020210D4801F006
:101DB0003FF80028E9D10C4B00221A70012009E0FD
:101DC000094A1278012AE4D1F5E7042B02D0002059
:101DD00000E0002008BD00BF08000020EC06002045
:101DE000F406002000040240F606002038B5FFF794
:101DF000F5FB854B1B78072B00F20281DFE813F01F
:101E00000800210050007A00A100AA00CE00E600E0
:101E1000FFF7B6FF20B17C4A13780133DBB21370B1
:101E20007A4C00224FF40051204601F008F80022BD
:101E30004FF48041204601F002F80020FFF7EEFD4C
:101E400038BDFFF769FF38B101210020FFF73EFFE1
:101E50006D4B00221A70F3E701224FF400516B48DA
:101E600000F0EDFF6A4B1B7813F0020F14D0694BA2
:101E70001878FFF789FE684B1878FFF793FE00216A
:101E8000664B1888FFF722FF0028D9D05E4A1378E6
:101E90000133DBB21370D3E70020FFF783FEEEE7D8
:101EA000FFF73AFF38B101210020FFF70FFF564B33
:101EB00000221A70C4E701224FF48041534800F019
:101EC000BEFF0520FFF7AAFD00214FF4FA70FFF7CF
:101ED000FDFE0028B4D0524B5B68B3F5967F05D366
:101EE000494A13780133DBB21370A9E7464B00224D
:101EF0001A70A5E7FFF710FF68B101210020FFF776
:101F0000E5FE0123002211461046FFF75DFE3E4B21
:101F100006221A7094E7434D0023434A1288297819
:101F200042480078FFF750FE0446C0B2FFF776FD46
:101F30002B78A34284D1344A13780133DBB2137077
:101F40007EE7FFF7E9FE10B12F4B05221A70FFF76D
:101F500087FD75E7FFF714FF48B101230022114602
:101F60001046FFF731FE284B04221A7068E7304D07
:101F70000023304A128829782A480078FFF724FE87
:101F80000446C0B2FFF74AFD2B78A3427FF458AF56
:101F90001D4A13780133DBB2137051E7FFF7F0FEEF
:101FA00038B101210020FFF791FE174B03221A7070
:101FB00046E700216420FFF789FE00283FF440AF88
:101FC000114A13780133DBB2137039E7FFF7D8FEFB
:101FD00038B101210020FFF779FE0B4B02221A7065
:101FE0002EE70020FFF71AFD0021134B1888FFF79A
:101FF0006DFE00283FF424AF034B00221A701FE748
:10200000014B00221A701BE7E8060020000802407E
:10201000E90600200907002008070020FA06002032
:10202000EC0600200D070020FE0600200A07002015
:102030000B070020FC060020F806002080B582B0C7
:10204000374B4FF496621A80364B4FF4FA621A807F
:1020500040F6B833344A1380344A13800523344A97
:102060001370344AC8211170334A78211170334AF1
:1020700013700125324B1D70324A137843F004016E
:10208000117043F0060313702F4B14221A702F4B5C
:102090002F4A1A602F4E642333702F4B46221A703A
:1020A0002A464FF400512D4800F0C9FEDFF8C890D1
:1020B000DFF8C88000240094234622464946404663
:1020C000FEF718FF264F009523462246494638461C
:1020D000FEF710FF21464046FEF7FAFE214638463D
:1020E000FEF7F6FEFFF72CF82046FEF741FFFEF75D
:1020F0004DFF3C211B4802F08BFB02221A491B4872
:1021000000F06AF93078FFF73FFD0C21184802F023
:10211000F9F9184801F0CAFEFFF768FEFCE700BFB6
:10212000FA060020F8060020FE060020FC0600202B
:102130000A0700200D0700200C0700200B070020D5
:10214000F4060020E9060020000700200407002014
:102150000000404009070020080700200008024056
:10216000D806002064010020EC0600206002002058
:102170001C0100208C000020AC010020E0060020A3
:1021800010B504460E4B1A784FF47A73B3FBF2F392
:102190000C4A1068B0FBF3F000F04EFB68B90F2C4E
:1021A00001D901200AE0002221464FF0FF3000F063
:1021B0002FFB054B1C60002000E0012010BD00BF7C
:1021C00018000020000000201C00002008B50B4B68
:1021D0001A6842F400721A601A6842F480621A6047
:1021E0001A6842F480721A60032000F0FFFA0F2090
:1021F000FFF7C6FFFFF708F8002008BD003C0240CB
:10220000034A1168034B1B780B441360704700BFEF
:102210001007002018000020014B1868704700BF0D
:102220001007002038B50446FFF7F6FF0546B4F165
:10223000FF3F02D0044B1B781C44FFF7EDFF401B0F
:10224000A042FAD338BD00BF180000204A4B5A689C
:1022500022F440325A605A6841680A435A60026860
:10226000536823F48073536002685368016943EA3A
:10227000012353600268536823F04073536002687F
:10228000536881680B4353600268936823F40063CA
:10229000936002689368C1680B439360826A374B0E
:1022A0009A4257D00268936823F070639360026883
:1022B0009368816A0B4393600268936823F04053EC
:1022C000936002689368C16A0B43936002689368E5
:1022D00023F00203936002689368017E43EA41039E
:1022E000936090F82030002B3FD00268536843F48D
:1022F000006353600268536823F4604353600168CD
:102300004B68426A013A43EA42334B600268D36A3F
:1023100023F47003D3620168CB6AC269013A43EACD
:102320000253CB620268936823F4007393600268DF
:10233000936890F8301043EA4123936002689368F1
:1023400023F48063936002689368416943EA8123C0
:10235000936070470268936823F07063936002682B
:10236000936823F040539360B0E70268536823F406
:1023700000635360CAE700BF002301400100000F63
:1023800038B310B50446036C43B1236C13F0100F3F
:102390000BD00120002384F83C3010BDFEF750FF25
:1023A0000023636484F83C30EFE7236C23F4885304
:1023B00023F0020343F0020323642046FFF746FFA5
:1023C00000206064236C23F0030343F001032364C3
:1023D000E0E701207047000010B582B013460022EC
:1023E000019290F83C20012A00F0948004460122DA
:1023F00080F83C200268906810F0010F13D19068BB
:1024000040F001009060464A1068464AA2FB002056
:10241000800C00EB4000019002E00198013801902F
:1024200001980028F9D12268906810F4807F03D0C9
:10243000906820F4807090602268906810F0010F1E
:102440005DD0206C20F4E06020F0010040F480704A
:102450002064526812F4806F05D0226C22F440523E
:1024600042F480522264226C12F4805F34D0626C99
:1024700022F006026264002284F83C20A26B2A4803
:10248000D063A26B29481064A26B2948D0642268EB
:102490006FF0220010602068426842F08062426063
:1024A0002068826842F48072826020680A4600F1E7
:1024B0004C01A06B00F0B6FA1E4B5B6813F01F0FC7
:1024C0000DD123689A6812F0405F25D19A6842F0D6
:1024D00080429A6000201BE000226264CBE7236800
:1024E000154A934201D0002012E09A6812F0405F32
:1024F00014D19A6842F080429A60002008E0236C70
:1025000043F010032364636C43F001036364002011
:1025100002B010BD0220FBE70020F9E70020F7E73A
:102520000000002083DE1B436325000841250008CE
:102530004D250008002301400020014070477047EE
:1025400008B5806BFFF7FBFF08BD704708B5806BCF
:1025500040230364436C43F004034364FFF7F5FF37
:1025600008BD08B50346806B026C12F0500F25D1F0
:10257000036C43F40073036403689A6812F0405FCD
:1025800019D1027EBAB9DA6A12F4700F03D09A68D0
:1025900012F4806F0FD15A6822F020025A60036C47
:1025A00023F480730364036C13F4805F03D1036C22
:1025B00043F001030364FFF7C1FF08BD026C12F092
:1025C000100F04D1826BD26C18469047F5E7FFF7E5
:1025D000BCFFF2E730B482B00022019290F83C20B8
:1025E000012A00F0B6800346012280F83C200A68E8
:1025F000092A40D90468E06892B202EB42021E3A0E
:102600004FF0070C0CFA02F220EA0202E2601C68AA
:10261000E0680A8802EB42021E3A8D6805FA02F26F
:102620000243E2604A68062A3CD81C68606B02EBF1
:102630008202053A4FF01F0C0CFA02F220EA020265
:1026400062631C68606B4A6802EB8202053AB1F86B
:1026500000C00CFA02F20243626318683E4A9042DC
:1026600050D018683C4A904255D0002083F83C0076
:1026700002B030BC70470468206992B202EB42029B
:102680004FF0070C0CFA02F220EA020222611C68E9
:1026900020690A8802EB42028D6805FA02F20243C1
:1026A0002261BFE70C2A16D81D68286B02EB820254
:1026B000233A1F2404FA02F220EA02022A631D6868
:1026C000286B4A6802EB8202233A0C8804FA02F271
:1026D00002432A63C1E71D68E86A02EB8202413ABD
:1026E0001F2404FA02F220EA0202EA621D68E86A84
:1026F0004A6802EB8202413A0C8804FA02F2024371
:10270000EA62AAE70A68122AABD11448426842F486
:1027100080024260A5E70A68103A012AA5D80F484E
:10272000426842F4000242600A68102A9DD10C4AB5
:1027300012680C49A1FB0212920C02EB82025200B9
:10274000019202E0019A013A0192019A002AF9D11C
:102750008BE702208CE700BF0020014000230140EE
:102760000000002083DE1B43002807DB00F01F026F
:10277000400901239340024A42F82030704700BFCD
:1027800000E100E0002808DB0901C9B200F1604067
:1027900000F5614080F80013704700F00F00090158
:1027A000C9B2014B1954704714ED00E000B500F0B8
:1027B0000700C0F1070CBCF1040F28BF4FF0040C58
:1027C000031D062B0FD9C31E4FF0FF3E0EFA0CF06F
:1027D00021EA000199400EFA03FE22EA0E0241EAC4
:1027E00002005DF804FB0023EEE70000074AD3680F
:1027F00023F4E0631B041B0C000200F4E0600343BD
:1028000043F0BF6343F40033D360704700ED00E052
:1028100010B50446054BD868C0F30220FFF7C6FF89
:1028200001462046FFF7AEFF10BD00BF00ED00E0FF
:1028300008B5FFF799FF08BD0138B0F1807F0BD2D2
:102840004FF0E0235861054AF02182F82310002060
:10285000986107221A6170470120704700ED00E07F
:1028600030B405682C6824F480242C60046863600C
:102870008368402B05D0036899600368DA6030BC38
:10288000704703689A600368D960F8E710B403687A
:10289000D9B210390A4AA2FB01421209094CA25CC2
:1028A000C2655F2907D96FF3090304338365806D1F
:1028B0005DF8044B70476FF309038365F7E700BFCA
:1028C000ABAAAAAA04770008836A826992B9012B8D
:1028D0000AD0022B02D00BB100207047C36A13F05C
:1028E000807F28D100207047C36AB3F1C07F24D015
:1028F00000207047B2F5005F09D0022B25D9032BC9
:1029000025D1C36A13F0807F23D100207047032BA9
:1029100003D8DFE803F01404140A00207047C36AE8
:1029200013F0807F0DD100207047C36AB3F1C07FE0
:1029300009D0002070470120704701207047012016
:102940007047012070470120704701207047002028
:10295000704701207047000070B50446FFF75CFC2B
:10296000002C5BD00546022384F83530002384F820
:1029700034302268136823F00103136023681A6857
:1029800012F0010F0AD0FFF747FC431B052BF5D9C6
:1029900020236365032084F8350070BD1A68204940
:1029A00011406268A0680243E06802432069024364
:1029B00060690243A0690243E0690243206A02435E
:1029C0000A43616A04291ED01A602668756925F0D9
:1029D0000705636A1D43042B07D1A36A1D43E36AFD
:1029E0001BB12046FFF770FF90B975612046FFF7D5
:1029F0004DFFE26D3F23934083600020606501231B
:102A000084F83530C9E7E16A206B01430A43DBE70C
:102A100040236365012084F83500BEE70120BCE750
:102A20003F8010F038B50446856D90F834000128D9
:102A30002AD0012084F8340094F83500012804D00D
:102A4000002384F83430022038BD022084F8350099
:102A5000002060652046FFF703FFE26D3F239340AF
:102A6000AB602268136843F016031360236C23B134
:102A70002268136843F0080313602268136843F068
:102A8000010313600020DFE70220DDE7F0B583B02B
:102A9000044600230193724B1D68724BA3FB05355E
:102AA000AD0A876D3E68C26D08239340334210D053
:102AB00003681A6812F0040F0BD01A6822F004029F
:102AC0001A60C26D08239340BB60436D43F001035D
:102AD0004365E26D01239340334209D02268526975
:102AE00012F0800F04D0BB60636D43F00203636596
:102AF000E26D04239340334209D02268126812F039
:102B0000020F04D0BB60636D43F004036365E26DA4
:102B100010239340334224D02268126812F0080F29
:102B20001FD0BB6023681A6812F4802F0DD01B6879
:102B300013F4002F04D1236C9BB12046984710E07A
:102B4000A36C73B1204698470BE01A6812F4807F9B
:102B500003D11A6822F008021A60236C0BB12046D8
:102B60009847E26D20239340334254D02268126884
:102B700012F0100F4FD0BB6094F83530052B0ED0FB
:102B800023681A6812F4802F33D01B6813F4002FC7
:102B90002AD1636C002B3ED0204698473BE0226848
:102BA000136823F0160313602268536923F080032F
:102BB0005361236CA3B12268136823F008031360E8
:102BC000E26D3F239340BB60012384F8353000233E
:102BD00084F83430236D002B3FD0204698473CE0EA
:102BE000A36C002BE7D1EBE7E36BA3B1204698473A
:102BF00011E01A6812F4807F09D11A6822F01002DD
:102C00001A60012384F83530002384F83430E36BF4
:102C10000BB120469847636DFBB1636D13F0010F54
:102C200017D0052384F835302268136823F0010398
:102C30001360019B01330193AB4204D823681B68E6
:102C400013F0010FF5D1012384F83530002384F807
:102C50003430E36C0BB12046984703B0F0BD00BFA1
:102C600000000020B5814E1B00230F2B00F2D780FF
:102C700070B582B065E085684FEA430E032404FA1C
:102C80000EF425EA0405CC6804FA0EF42C438460A3
:102C9000446824EA02044A68C2F300129A402243BC
:102CA00042605CE0DC08083450F8242003F007059B
:102CB000AD004FF00F0E0EFA05FE22EA0E0E0A6965
:102CC000AA4042EA0E0240F824205CE0042200E020
:102CD000002202FA0EF22A430234514D45F8242014
:102CE000504A94686FEA0C0224EA0C054E6816F408
:102CF000801F01D04CEA04054A4CA560E46802EA52
:102D000004054E6816F4001F01D04CEA0405454C3A
:102D1000E560646802EA04054E6816F4003F01D0DD
:102D20004CEA04053F4C6560246822404D6815F468
:102D3000803F01D04CEA04023A4C226001330F2B51
:102D40006BD801229A400C6804EA020C32EA0404AF
:102D5000F4D14C6804F00304013C012C8BD94A687F
:102D600002F00302032A09D0C4685D000322AA40CE
:102D700024EA02048A68AA402243C2604A6802F038
:102D80000302022A8ED004684FEA430E032202FA9D
:102D90000EF224EA02044A6802F0030202FA0EF27A
:102DA000224302604A6812F4403FC7D000220192D9
:102DB0001D4A546C44F480445464526C02F48042C2
:102DC0000192019A9C08A51C154A52F8255003F05F
:102DD000030E4FEA8E0E0F2202FA0EF225EA0205CA
:102DE000124A90423FF474AF02F5806290420ED0D6
:102DF00002F5806290420CD002F5806290420AD0C7
:102E000002F5806290423FF461AF072261E7012240
:102E10005FE702225DE703225BE702B070BD704707
:102E200000380140003C01400038024000000240F0
:102E30000369194201D001207047002070470AB190
:102E400081617047090481617047000008B5054B36
:102E50005B69034200D108BD024B5861FEF7B2FE28
:102E6000F9E700BF003C014003685A6912F4806F23
:102E700001D1002070476FF480625A610023036320
:102E8000202280F83D2080F83E30026C42F004029F
:102E9000026480F83C30012070472DE9F04106467D
:102EA0000C46174698463BE0FFF7B6F9069BC01A5A
:102EB000404502D8B8F1000F32D1012D18D0336847
:102EC0009B6924EA03039BB2B3FA83F35B099F4235
:102ED00026D100233363202286F83D2086F83E3039
:102EE000326C42F02002326486F83C30012027E048
:102EF00033685B6924EA03039BB2B3FA83F35B098B
:102F0000E5E733685B6924EA030C1FFA8CFCBCFA22
:102F10008CFC4FEA5C1C674511D1B8F1FF3FC3D16F
:102F2000C4F30745012DECD033689B6924EA030CF8
:102F30001FFA8CFCBCFA8CFC4FEA5C1CEBE700200F
:102F4000BDE8F0812DE9F84305460E4690469946C6
:102F500053E01A6842F400721A602B686FF48062C2
:102F60005A6100232B63202285F83D2085F83E30EE
:102F70002A6C42F004022A6485F83C3001204AE0C1
:102F8000FFF74AF9A0EB0900404502D8B8F1000F5D
:102F900033D1012F17D02B689B6926EA03039BB21C
:102FA000003B18BF012343B300232B63202285F885
:102FB0003D2085F83E302A6C42F020022A6485F8D4
:102FC0003C30012027E02B685B6926EA03039BB2B3
:102FD000003B18BF0123E6E72B689C6926EA04043E
:102FE000A4B2003C18BF0124A4B12B685A6912F4A2
:102FF000806FAED1B8F1FF3FC2D1C6F30747012FB2
:10300000EAD12B685C6926EA0404A4B2003C18BF2C
:103010000124E9E70020BDE8F8830000F0B583B0A3
:1030200004460D4616461F46C36A082B0DD0012BD9
:103030000BD013F5803F08D0036B122B0AD1026826
:10304000136843F48073136004E02268136843F448
:10305000807313600097334600224FF00111204621
:10306000FFF71BFF80B92369B3F5804F16D12368A2
:1030700005F0FE051D613B46324613492046FFF729
:1030800061FFF8B903B0F0BD23681B6813F4807FBB
:1030900002D04FF4007323640320F3E7EB1122689E
:1030A00003F0060343F0F00313613B463246074941
:1030B0002046FFF747FF18B92368EDB21D61DAE734
:1030C0000120DFE70120DDE7020001000800010028
:1030D00070B504460D46164623685B6913F0800FF1
:1030E00021D12046FFF7C0FEF8B9B5F1FF3FF3D07C
:1030F000FFF792F8801BA84201D8002DECD123687D
:103100005B6913F0800FE7D100232363202284F84A
:103110003D2084F83E30226C42F02002226484F884
:103120003C30012000E0002070BD0120FCE70000E1
:103130002DE9F04385B004460D4691461F46DDF863
:1031400030800D9E0368196841F480711960009603
:10315000434600224FF00111FFF79FFE60B923683C
:1031600005F0FE051D613346424626492046FFF71D
:10317000E9FE68B1012008E023681B6813F4807F32
:1031800002D04FF400732364032005B0BDE8F08340
:103190000023039323685A6903929B690393039B5B
:1031A000324641462046FFF793FF30B9012F0FD139
:1031B00023685FFA89F61E61E7E7236C042B01D0D0
:1031C0000120E2E72268136843F400731360F7E715
:1031D00023684FEA19221A61324641462046FFF71A
:1031E00077FF20B923685FFA89F61E61CDE7236C6B
:1031F000042B01D00120C8E72268136843F4007350
:103200001360F7E70200010070B504460D4616464C
:1032100023685B6913F0040F21D12046FFF724FED9
:10322000F8B9B5F1FF3FF3D0FEF7F6FF801BA842D7
:1032300001D8002DECD123685B6913F0040FE7D1AE
:1032400000232363202284F83D2084F83E30226C42
:1032500042F02002226484F83C30012000E000208B
:1032600070BD0120FCE70000002800F0CC8070B5A4
:10327000044690F83D30002B77D0242384F83D306D
:103280002268136823F0010313602268136843F473
:10329000004313602268136823F40043136000F0B6
:1032A00037FD62685A4B9A4264D85A4B98428CBF99
:1032B00000230123002B40F0A8805749A1FB0031D7
:1032C0008B0C25686A6822F03F0242EA91426A60EC
:1032D00021680A6A22F03F0266684D4DAE424FD81F
:1032E000013313430B622168CA6922F44F4222F072
:1032F000FF026568464B9D424CD8431E6D00B3FBF0
:10330000F5F3013340F6FC70034278D0C3F30B03AE
:103310001A43CA6121680B6823F0C003E269206A7E
:10332000024313430B6021688B6823F4034323F0AB
:10333000FF032269E068024313438B602168CB6876
:1033400023F0FF036269A06902431343CB60226844
:10335000136843F00103136000202064202384F8E5
:103360003D30206384F83E0070BD80F83C30FDF7AE
:10337000BBFF82E7294B98428CBF0023012399E7CA
:103380004FF4967505FB03F3254DA5FB03539B09ED
:103390000133A6E7A668BEB9431E05EB450CB3FB97
:1033A000FCF30133C3F30B03B3FA83F35B0943BBB1
:1033B000C6B9431E05EB4505B3FBF5F30133C3F373
:1033C0000B0343F40043A3E7431E05EB850C0CEB12
:1033D0008C0CB3FBFCF30133C3F30B03B3FA83F39D
:1033E0005B09E4E7431E05EB850505EB8505B3FBAB
:1033F000F5F30133C3F30B0343F4404388E704239D
:1034000086E7012384E7012070470120ACE700BF75
:10341000A08601007F841E0083DE1B43FF083D0061
:10342000D34D62102DE9F04385B004460F46904617
:1034300099460C9EFEF7F0FE94F83D10202904D02A
:103440000227384605B0BDE8F083054600901923F1
:1034500001224F492046FFF720FD002840F09280CE
:1034600094F83C30012B00F08F80012384F83C302D
:1034700023681A6812F0010F03D11A6842F00102A2
:103480001A602268136823F400631360212384F810
:103490003D30102384F83E3000232364C4F8248098
:1034A000A4F82A90638D23853A4BE3622B4632467B
:1034B00039462046FFF7B2FD0746002866D10023B3
:1034C000039323685A6903929B690393039B11E05A
:1034D000236C042B01D00127B3E72268136843F45F
:1034E00000731360F7E72A4631462046FFF78CFE4B
:1034F00000282ED1238D002B36D02A463146204677
:10350000FFF7E6FD0028E3D1626A236812781A61AA
:10351000606A431C6362618D89B2013989B2618539
:10352000238D013B9BB223852268516911F0040F62
:10353000D9D0002BD7D043781361636A013363621B
:10354000638D9BB2013B9BB26385238D013B238539
:10355000C9E7236C042B01D0012772E722681368A6
:1035600043F400731360F7E72268136843F40073B1
:103570001360202384F83D30002384F83E3084F823
:103580003C305EE702275CE702275AE7012758E74D
:10359000020010000000FFFF2DE9F04383B0044655
:1035A0000F46904699460C9EFEF736FE94F83D2055
:1035B000202A03D0022003B0BDE8F0830546009026
:1035C000192301224A492046FFF767FC002840F0F2
:1035D000898094F83C30012B00F08680012384F828
:1035E0003C3023681A6812F0010F03D11A6842F0C8
:1035F00001021A602268136823F400631360212318
:1036000084F83D30402384F83E30002323640A9B35
:103610006362BDF82C306385638D2385354BE3628F
:10362000019500964B46424639462046FFF780FDFD
:1036300000285BD1238D002B35D02A463146204609
:10364000FFF746FD20BB626A236812781A61626A3E
:10365000531C6362218D013989B22185638D9BB230
:10366000013B9BB263852368586910F0040FE1D0D9
:103670000029DFD052781A61636A01336362238DB7
:10368000013B2385638D9BB2013B9BB26385D1E7F0
:10369000236C042B01D001208DE72268136843F4CA
:1036A00000731360F7E72A4631462046FFF7ACFD6A
:1036B00050B1236C042B01D001207CE722681368F1
:1036C00043F400731360F7E72268136843F4007350
:1036D0001360202384F83D30002384F83E3084F8C2
:1036E0003C3068E7022066E7022064E7012062E7D9
:1036F000020010000000FFFF002800F0E08170B51C
:1037000082B00446036813F0010F3BD09F4B9B68C7
:1037100003F00C03042B2CD09C4B9B6803F00C0390
:10372000082B21D06368B3F5803F4FD0B3F5A02FAD
:1037300052D0964B1A6822F480321A601A6822F42A
:1037400080221A606368002B50D0FEF765FD0546A5
:103750008E4B1B6813F4003F14D1FEF75DFD401B38
:103760006428F5D90320B1E1884B5B6813F4800F1E
:10377000D8D0864B1B6813F4003F03D06368002B3E
:1037800000F09F81236813F0020F54D07F4B9B6899
:1037900013F00C0F3ED07D4B9B6803F00C03082BFD
:1037A00033D0E368002B68D0794B01221A60FEF712
:1037B00033FD0546754B1B6813F0020F54D1FEF71D
:1037C0002BFD401B0228F5D903207FE16F4A1368C7
:1037D00043F480331360B5E76C4B1A6842F48022DF
:1037E0001A601A6842F480321A60ABE7FEF714FDE3
:1037F0000546664B1B6813F4003FC3D0FEF70CFD73
:10380000401B6428F5D9032060E1604B5B6813F42A
:10381000800FC6D15D4B1B6813F0020F03D0E36825
:10382000012B40F05081594A136823F0F8032169B5
:1038300043EAC1031360236813F0080F42D06369A1
:103840006BB3534B0122C3F8802EFEF7E5FC05460F
:103850004E4B5B6F13F0020F34D1FEF7DDFC401BC3
:103860000228F5D9032031E1484A136823F0F80310
:10387000216943EAC1031360DDE7454B00221A606A
:10388000FEF7CAFC0546414B1B6813F0020FD2D06D
:10389000FEF7C2FC401B0228F5D9032016E13C4B81
:1038A0000022C3F8802EFEF7B7FC0546374B5B6F4E
:1038B00013F0020F06D0FEF7AFFC401B0228F5D92B
:1038C000032003E1236813F0040F77D02F4B1B6C08
:1038D00013F0805F33D1002301932C4B1A6C42F01C
:1038E00080521A641B6C03F080530193019B0125E5
:1038F000284B1B6813F4807F23D0A368012B34D09E
:10390000052B38D0214B1A6F22F001021A671A6F6B
:1039100022F004021A67A368002B3DD0FEF77CFC5E
:1039200006461A4B1B6F13F0020F46D1FEF774FCCC
:10393000801B41F288339842F3D90320C6E000256A
:10394000D6E7144A136843F480731360FEF764FCEF
:103950000646104B1B6813F4807FCED1FEF75CFC4B
:10396000801B0228F5D90320B0E0084A136F43F00A
:1039700001031367CFE7054B1A6F42F004021A6781
:103980001A6F42F001021A67C5E700BF0038024013
:103990000000474200700040FEF73EFC0646524BD6
:1039A0001B6F13F0020F08D0FEF736FC801B41F2AC
:1039B00088339842F3D9032088E0EDB9A369002B3E
:1039C00000F08380484A926802F00C02082A51D025
:1039D000022B17D0454B00221A66FEF71DFC044649
:1039E000414B1B6813F0007F42D0FEF715FC001B13
:1039F0000228F5D9032069E03B4A136C23F0805379
:103A00001364DBE7394B00221A66FEF705FC054616
:103A1000354B1B6813F0007F06D0FEF7FDFB401B03
:103A20000228F5D9032051E0E369226A1343626A50
:103A300043EA8213A26A5208013A43EA0243E26A65
:103A400043EA0263284A5360284B01221A66FEF7B4
:103A5000E3FB0446244B1B6813F0007F06D1FEF7FE
:103A6000DBFB001B0228F5D903202FE000202DE00E
:103A700000202BE0012B2BD01B4B5B6803F4800153
:103A8000E269914226D103F03F02216A8A4223D1A2
:103A9000616A47F6C0721A40B2EB811F1ED103F46F
:103AA0004031A26A5208013AB1EB024F18D103F03B
:103AB0007063E26AB3EB026F14D1002006E00120CC
:103AC0007047012002E0012000E0002002B070BD3C
:103AD0000120FBE70120F9E70120F7E70120F5E7E6
:103AE0000120F3E70120F1E70038024000004742DF
:103AF000014B0122DA6470470000474208B5264BAB
:103B00009B6803F00C03042B41D0082B41D1224BBE
:103B10005A6802F03F025B6813F4800F12D01E4B0C
:103B20005968C1F388111D480023A1FB0001FCF76F
:103B300075FF194B5B68C3F3014301335B00B0FBB6
:103B4000F3F008BD144B5868C0F388104FEA401CCE
:103B5000BCEB000C6EEB0E0E4FEA8E1343EA9C6337
:103B60004FEA8C11B1EB0C0163EB0E03DB0043EA6F
:103B70005173C90011EB000C43F1000399020023BB
:103B80004FEA8C2041EA9C51FCF748FFD1E70348FB
:103B9000D7E70348D5E700BF0038024040787D01F1
:103BA0000024F400002800F09B8070B50D46044608
:103BB0004F4B1B6803F007038B4208D2CBB24C4A31
:103BC0001370136803F007038B4240F08B80236867
:103BD00013F0020F17D013F0040F04D0454A936876
:103BE00043F4E0539360236813F0080F04D0414A74
:103BF000936843F4604393603E4A936823F0F00374
:103C0000A1680B439360236813F0010F32D06368FF
:103C1000012B21D09A1E012A25D9364A126812F0AA
:103C2000020F61D033498A6822F0030213438B608C
:103C3000FEF7F2FA06462F4B9B6803F00C0362680E
:103C4000B3EB820F16D0FEF7E7FA801B41F2883300
:103C50009842F0D9032042E0264A126812F4003F4D
:103C6000E0D101203BE0234A126812F0007FD9D155
:103C7000012034E01E4B1B6803F00703AB4207D959
:103C8000EAB21B4B1A701B6803F00703AB422DD13D
:103C9000236813F0040F06D0164A936823F4E05308
:103CA000E1680B439360236813F0080F07D0114AB3
:103CB000936823F46043216943EAC1039360FFF7EB
:103CC0001DFF0C4B9B68C3F303130B4AD35CD84016
:103CD0000A4B18600A4B1868FEF752FA002070BDB4
:103CE000012070470120FAE70120F8E70120F6E7FC
:103CF000003C024000380240C0760008000000206E
:103D00001C000020014B1868704700BF0000002015
:103D100008B5FFF7F7FF044B9B68C3F38223034A00
:103D2000D35CD84008BD00BF00380240B876000818
:103D30007047000008B5064BDB6813F0800F00D118
:103D400008BDFFF7F5FF024B80229A73F8E700BF2A
:103D50000038024030B4026A036A23F001030362B0
:103D60004568836923F073030C681C4322F0020248
:103D70008B6813430B4A904206D0456084614A68C1
:103D80004263036230BC704723F00803CA681A43D9
:103D900022F0040325F440754A692A438D691543CE
:103DA000EBE700BF0000014030B4036A026A22F46E
:103DB000807202624468C26922F073020D68154382
:103DC00023F400738A6843EA02230D4A904206D026
:103DD0004460C5614A68C263036230BC704723F423
:103DE0000063CA6843EA022323F4806324F4405446
:103DF0004A6944EA02148A6944EA0214E8E700BF07
:103E00000000014030B4036A026A22F48052026268
:103E10004468C26922F4E6420D6842EA052223F4AE
:103E200000538D6843EA0533074DA84206D044602D
:103E3000C2614A680264036230BC704724F4804463
:103E40004D6944EA8514F2E70000014010B4036AAA
:103E5000046A24F001040462846924F0F00C4CEA42
:103E6000021223F00A030B43826103625DF8044BE4
:103E7000704710B4036A046A24F010040462846971
:103E800024F4704C4CEA023223F0A00343EA0113FD
:103E9000826103625DF8044B7047836823F070030E
:103EA0000B4343F0070383607047000090F83D30F8
:103EB000012B2FD1022380F83D300268D36843F0F4
:103EC0000103D3600368154A934218D0B3F1804FC1
:103ED00015D0A2F57C42934211D002F58062934244
:103EE0000DD002F58062934209D002F59A329342D6
:103EF00005D01A6842F001021A60002070479A68E3
:103F000002F00702062A07D01A6842F001021A607E
:103F100000207047012070470020704700000140DA
:103F20007047704770477047704770B50446036824
:103F3000DE681D6915F0020F10D016F0020F0DD0CB
:103F40006FF002021A610123037703689B6913F083
:103F5000030F5ED0FFF7E6FF0023237715F0040F71
:103F600012D016F0040F0FD023686FF004021A610C
:103F70000223237723689B6913F4407F4FD02046A8
:103F8000FFF7D0FF0023237715F0080F12D016F0AB
:103F9000080F0FD023686FF008021A6104232377FB
:103FA0002368DB6913F0030F40D02046FFF7BAFF08
:103FB0000023237715F0100F12D016F0100F0FD03A
:103FC00023686FF010021A61082323772368DB69E6
:103FD00013F4407F31D02046FFF7A4FF002323775E
:103FE00015F0010F02D016F0010F2DD115F0800F42
:103FF00002D016F0800F2FD115F0400F02D016F02E
:10400000400F31D115F0200F02D016F0200F33D120
:1040100070BDFFF786FF2046FFF785FF9CE720462F
:10402000FFF77FFF2046FFF77EFFABE72046FFF755
:1040300078FF2046FFF777FFBAE72046FFF771FFCA
:104040002046FFF770FFC9E723686FF001021A618D
:104050002046FDF7F7FDC9E723686FF080021A617B
:10406000204600F07AFCC7E723686FF040021A612F
:104070002046FFF759FFC5E723686FF020021A6159
:10408000204600F069FCC3E70368294A90420ED03D
:10409000B0F1804F0BD0A2F57C42904207D002F5E0
:1040A0008062904203D002F58062904203D123F0F7
:1040B00070034A6813431E4A90421AD0B0F1804FF1
:1040C00017D0A2F57C42904213D002F58062904254
:1040D0000FD002F5806290420BD002F59A329042E6
:1040E00007D002F58062904203D002F580629042D0
:1040F00003D123F44073CA68134323F080034A6951
:10410000134303608B68C3620B688362084B984259
:104110000AD001234361036913F0010F03D003693F
:1041200023F00103036170470B690363F1E700BFEC
:104130000000014040B310B5044690F83D30F3B1A3
:10414000022384F83D30214651F8040BFFF79CFF11
:10415000012384F8463084F83E3084F83F3084F8F8
:10416000403084F8413084F8423084F8433084F899
:10417000443084F8453084F83D30002010BD80F88C
:104180003C30FDF735F9DBE70120704740B310B54F
:10419000044690F83D30F3B1022384F83D302146C7
:1041A00051F8040BFFF770FF012384F8463084F8C0
:1041B0003E3084F83F3084F8403084F8413084F851
:1041C000423084F8433084F8443084F8453084F831
:1041D0003D30002010BD80F83C30FFF7A1FEDBE74A
:1041E00001207047002853D0F8B50D46044690F8DA
:1041F0003D30002B47D0022384F83D30226893687D
:1042000023F4804323F007039360214651F8040B05
:10421000FFF73AFF21688B688A690E6A286818439D
:1042200022F4407222F00302AB68AF6943EA07232D
:10423000134323F47C4323F0FC03EA68EF6942EA6A
:1042400007221A432B6A1B032F6943EA0713134300
:1042500026F0AA066A686D6942EA05123243886050
:1042600021688B6123681A62012384F8463084F840
:104270003E3084F83F3084F8423084F8433084F88C
:104280003D300020F8BD80F83C30FDF765F8B2E71E
:104290000120704730B4036A026A22F01002026201
:1042A0004468826922F4E6420D6842EA052223F05E
:1042B00020038D6843EA05130C4DA84206D04460E4
:1042C00082614A688263036230BC704723F08003D6
:1042D000CD6843EA051323F0400324F440644D699C
:1042E00044EA85048D6944EA8504E8E7000001405A
:1042F00038B590F83C30012B66D004460D460123BA
:1043000080F83C300C2A5AD8DFE802F00759595996
:104310001B5959593059595944000068FFF71AFD83
:104320002268936943F0080393612268936923F03C
:10433000040393612268936929690B439361002008
:104340003EE00068FFF7A6FF2268936943F400632C
:1043500093612268936923F480639361226893696F
:10436000296943EA01239361002029E00068FFF7EF
:104370001BFD2268D36943F00803D3612268D36927
:1043800023F00403D3612268D36929690B43D36105
:10439000002015E00068FFF735FD2268D36943F47B
:1043A0000063D3612268D36923F48063D3612268F8
:1043B000D369296943EA0123D361002000E0012089
:1043C000002384F83C3038BD0220FCE710B4846838
:1043D00024F47F4C42EA03220A4342EA0C02826040
:1043E0005DF8044B704790F83C30012B78D010B545
:1043F0000446012380F83C30022380F83D300268F7
:10440000936823F47F4323F0770393600B68602B5A
:104410004CD023D8402B54D011D8202B03D00AD80D
:104420000BB1102B05D119462068FFF736FD00208F
:1044300028E0012026E0302BF5D0012022E0502B8F
:104440000AD1CA6849680068FFF700FD502120685A
:10445000FFF723FD002015E0012013E0B3F5805F96
:104460003AD0B3F5005F14D0702B37D1CB684A68CF
:1044700089680068FFF7AAFF2268936843F0770312
:1044800093600020012384F83D30002384F83C3001
:1044900010BDCB684A6889680068FFF797FF2268FB
:1044A000936843F4804393600020EBE7CA6849684F
:1044B0000068FFF7DEFC60212068FFF7EEFC0020BB
:1044C000E0E7CA6849680068FFF7C0FC402120683F
:1044D000FFF7E3FC0020D5E70020D3E70120D1E778
:1044E0000220704701F01F014FF0010C0CFA01FC93
:1044F000036A23EA0C030362036A8A4013430362DC
:104500007047000010B50446084689BB94F83E3059
:10451000013B18BF0123002B60D100283ED10223AC
:1045200084F83E30012201462068FFF7DBFF236854
:104530002C4A934242D023682A4A934243D0B3F193
:10454000804F40D0A2F57C4293423CD002F580627D
:10455000934238D002F58062934234D002F59A3209
:10456000934230D01A6842F001021A60002034E011
:10457000042907D008290BD094F84130013B18BF1B
:104580000123C8E794F83F30013B18BF0123C2E77D
:1045900094F84030013B18BF0123BCE7042805D044
:1045A000082807D0022384F84130BBE7022384F8AF
:1045B0003F30B7E7022384F84030B3E75A6C42F447
:1045C00000425A64B7E79A6802F00702062A07D049
:1045D0001A6842F001021A60002010BD0120FCE7B9
:1045E0000020FAE70000014010B504460846002903
:1045F00037D194F83E30013B18BF0123002B40F027
:104600009580002843D1022384F83E302268D36885
:1046100043F00203D360012201462068FFF762FFE6
:104620002368454A934271D02368434A934272D02B
:10463000B3F1804F6FD0A2F57C4293426BD002F56C
:104640008062934267D002F58062934263D002F5A4
:104650009A3293425FD01A6842F001021A60002039
:1046600065E0042907D008290BD094F84130013BBC
:1046700018BF0123C2E794F83F30013B18BF012364
:10468000BCE794F84030013B18BF0123B6E704288B
:1046900024D008282BD0022384F841300C2847D896
:1046A00001A353F820F000BF0D4600083147000871
:1046B0003147000831470008E34600083147000849
:1046C0003147000831470008F54600083147000827
:1046D000314700083147000801470008022384F8E9
:1046E0003F302268D36843F00403D36093E702238A
:1046F00084F840302268D36843F00803D3608AE727
:104700002268D36843F01003D36084E75A6C42F404
:1047100000425A6488E79A6802F00702062A09D024
:104720001A6842F001021A60002000E0012010BD6A
:104730000120FCE70020FAE70000014038B50546FB
:104740000C460C295FD8DFE801F0075E5E5E2A5E4A
:104750005E5E305E5E5E36000268D36823F0020360
:10476000D360002221462868FFF7BCFE2B68274A49
:10477000934226D02B68196A41F21112114208D1D6
:10478000196A40F24442114203D11A6822F0010230
:104790001A602CBB012385F83E30002034E002680B
:1047A000D36823F00403D360DBE70268D36823F007
:1047B0000803D360D5E70268D36823F01003D36001
:1047C000CFE7196A41F211121142D3D1196A40F2AE
:1047D00044421142CED15A6C22F400425A64C9E7D5
:1047E000042C06D0082C09D0012385F84130002084
:1047F0000AE0012385F83F30002005E0012385F819
:104800004030002000E0012038BD00BF0000014022
:1048100038B5044690F83E00C0B294F83F3094F8A2
:104820004220D2B294F843C00D46B1B9012849D113
:10483000012A48D1022384F83E3084F842307DB307
:10484000042D39D0012200212068FFF74BFE012200
:1048500004212068FFF746FE27E0DBB25FFA8CFCFC
:10486000042912D0012833D1012B2CD1012A31D1B6
:10487000BCF1010F30D1022384F83E3084F83F3080
:1048800084F8423084F84330D9E7012B1CD1BCF1C5
:10489000010F1BD1022384F83F3084F84330CEE768
:1048A000012200212068FFF71DFE2268136843F0F3
:1048B00001031360002006E0012204212068FFF7B5
:1048C00011FEF2E7012038BD0120FCE71846FAE7A7
:1048D0000120F8E71846F6E71046F4E790F83C2088
:1048E000012A35D010B40346012280F83C20022270
:1048F00080F83D2002685068946820F0700C0868C9
:1049000040EA0C0050601A681248824212D0B2F19C
:10491000804F0FD0A0F57C4082420BD000F5806024
:10492000824207D000F58060824203D000F59A30C1
:10493000824204D124F0800449682143916001221D
:1049400083F83D20002083F83C005DF8044B70475D
:10495000022070470000014070477047DFF834D0F4
:10496000FCF732FE0C480D490D4A002302E0D458F2
:10497000C4500433C4188C42F9D30A4A0A4C0023A9
:1049800001E013600432A242FBD300F055F8FCF7BB
:1049900087FA70470000012000000020700000200E
:1049A00050770008700000205C080020FEE700003F
:1049B0000CB430B5184B0C1E1D689DB008DA8B2363
:1049C0002B604FF0FF301DB0BDE8304002B07047A3
:1049D0004FF40273ADF814304FF000031B9314BF73
:1049E00004F1FF332346049307934FF6FF730290BD
:1049F0000690ADF81630209A21AB02A92846019303
:104A000000F0A6F9431CBCBF8B232B60002CDAD02E
:104A1000029B00221A70D6E72000002002440346C1
:104A2000934200D1704703F8011BF9E7014B186866
:104A3000704700BF2000002070B50D4B0D4D5B1B73
:104A40009C100026A64209D100F0CAFD0A4D0B4B6E
:104A50005B1B9C100026A64205D170BD55F8043B97
:104A600098470136EEE755F8043B98470136F2E7E0
:104A70004877000848770008487700084C77000816
:104A8000704770470A44914200F1FF3300D17047EC
:104A900010B511F8014B03F8014F9142F9D110BD47
:104AA00038B50546002941D051F8043C0C1F002BB5
:104AB000B8BFE41800F0E0F81D4A136833B963602A
:104AC00014602846BDE8384000F0DCB8A34208D99D
:104AD000206821188B4201BF19685B6809182160A2
:104AE000EDE71A465B680BB1A342FAD9116850187A
:104AF000A0420BD120680144501883421160E0D1DC
:104B000018685B68536008441060DAE702D90C2328
:104B10002B60D6E7206821188B4204BF19685B68B8
:104B2000636004BF091821605460CAE738BD00BF44
:104B30005808002070B50F4E0C463168054611B973
:104B400000F0AAFB30602146284600F0A5FB431C7C
:104B500003D14FF0FF34204670BDC41C24F0030481
:104B6000A042F8D0211A284600F096FB0130F2D17D
:104B7000EFE700BF540800202DE9F843CD1C25F0D5
:104B8000030508350C2D38BF0C25002D064601DB2A
:104B9000A94204D90C2333600020BDE8F883DFF874
:104BA000D48000F069F8D8F800301C4644BB294690
:104BB0003046FFF7BFFF431C044658D1D8F80040E9
:104BC0002746002F43D1002C4BD02368394630466E
:104BD00004EB030900F060FB814542D121686D1AA6
:104BE00029463046FFF7A6FF01303AD023682B4410
:104BF0002360D8F800305A6862BBC8F800700FE034
:104C00002268521B20D40B2A17D96119A3422560B0
:104C100018BF5960636808BFC8F8001062514B6044
:104C2000304600F02FF804F10B00231D20F00700A0
:104C3000C21A1CBF1B1AA350AFE76268A3420CBF85
:104C4000C8F800205A60EBE723466468AEE73C46AC
:104C50007F68B6E71A465B68A342FBD10023536026
:104C6000DEE70C233360304600F00CF894E7056073
:104C7000D6E700BF580800200148FFF701BF00BF7A
:104C8000500800200148FFF7FCBE00BF500800207C
:104C90002DE9F0478E681F46BE4282460C4690467C
:104CA000334653D8B1F90C0010F4906F2BD06569DE
:104CB0002368096905EB4505A3EB010905EBD575EB
:104CC0007B1C6D104B44AB422A4684BF1D462A46CE
:104CD000430527D511465046FFF74EFF064658B309
:104CE00021694A46FFF7CEFEA38923F4906343F07F
:104CF0008003A381266165614E44A5EB090526600A
:104D0000A5603E463B461F4620683A46414600F0B5
:104D1000A9FAA3689B1BA36023683B44236000207F
:104D2000BDE8F087504600F0C7FA06460028E1D1FA
:104D300021695046FFF7B4FE0C23CAF80030A3895E
:104D400043F04003A3814FF0FF30E9E73E46DBE745
:104D50002DE9F04F98468B891B069DB007460D46FE
:104D6000144610D50B6973B94021FFF705FF286081
:104D7000286130B90C233B604FF0FF301DB0BDE817
:104D8000F08F40236B610023099320238DF8293095
:104D9000CDF80C803023DFF89C818DF82A304FF05D
:104DA000010923469A4613F8012B0AB1252AF9D1A5
:104DB000BAEB040B0BD05B46224629463846FFF778
:104DC00067FF013000F0A780099A5A4409929AF8C7
:104DD0000030002B00F09F8000234FF0FF32CDE920
:104DE00005230AF1010A049307938DF853301A93AF
:104DF0005446052214F8011B4E48FBF7D1F9049ADA
:104E0000D8B9D00644BF20238DF85330110744BFD2
:104E10002B238DF853309AF800302A2B15D0079A9F
:104E2000544600204FF00A0C214611F8013B303B5C
:104E3000092B4BD9B0B1079214E0A0EB080309FA93
:104E400003F313430493A246D2E7039B191D1B6887
:104E50000391002BBBBF5B4242F002020793079312
:104E6000B8BF049223782E2B0AD163782A2B32D133
:104E7000039B1A1D1B68039243EAE37302340593F4
:104E8000DFF8C0A0217803225046FBF789F938B13A
:104E9000049BA0EB0A004022824013430134049398
:104EA00014F8011B24488DF828100622FBF778F926
:104EB000002836D0214B1BBB039B073323F007038D
:104EC00008330393099B334409936AE70CFB0232CE
:104ED0000C460120A8E700230134059319464FF042
:104EE0000A0C204610F8012B303A092A03D9002B6E
:104EF000C6D00591C4E70CFB012104460123F0E76D
:104F000003AB00932A460E4B04A93846AFF300804A
:104F1000421C0646D6D1AB895B063FF52DAF0998FA
:104F20002CE703AB00932A46054B04A9384600F052
:104F300079F8EDE70C77000816770008000000000C
:104F4000914C0008127700082DE9F0471646984664
:104F50008A680B69DDF820909342B8BF134633602E
:104F600091F8432007460C460AB1013333602368A9
:104F7000990642BF336802333360256815F0060591
:104F800006D104F1190AE36832689B1AAB4226DCA9
:104F900094F843302268003B18BF012392062BD4BB
:104FA00004F1430241463846C84701301ED0236809
:104FB000226903F00603042B02BFE5683368ED1A8B
:104FC000A3680CBF25EAE57500259342C4BF9B1A70
:104FD000ED1800261A34B5421AD1002008E001234A
:104FE000524641463846C847013003D14FF0FF30A2
:104FF000BDE8F0870135C6E7E1185A1C302081F87A
:105000004300224494F8451082F843100233C7E766
:105010000123224641463846C8470130E6D00136D2
:10502000D9E700002DE9FF470F7E0C9E782F9146AF
:1050300080460C469A4601F1430207D8622F0AD8EF
:10504000002F00F0D280582F00F0B78004F1420604
:1050500084F842703AE0A7F16303152BF6D801A15A
:1050600051F823F0BD500008D15000084D50000801
:105070004D5000084D5000084D500008D150000818
:105080004D5000084D5000084D5000084D5000088C
:10509000D1510008FB500008875100084D5000080E
:1050A0004D500008F35100084D500008FB50000817
:1050B0004D5000084D5000088F51000833681A1DEC
:1050C0001B68326004F1420684F8423001239DE0FF
:1050D00033682068191D3160060601D51D6803E09C
:1050E0004506FBD5B3F90050002D03DA2D236D42A0
:1050F00084F8433059480A2310E0216833680806D1
:1051000053F8045B02D4490648BFADB26F2F534831
:10511000336059D10823002184F843106668A660E3
:10512000002E05DB21682E4321F0040121604DD0C3
:105130001646B5FBF3F103FB1157C75D06F8017D79
:105140002F46BB420D46F4D9082B0BD12368DF074D
:1051500008D5236961689942DEBF302306F8013C17
:1051600006F1FF36921B2261CDF800A04B4603AA40
:1051700021464046FFF7E8FE01304CD14FF0FF30AA
:1051800004B0BDE8F087236843F02003236034486F
:10519000782784F84570236831681F0651F8045B4E
:1051A00002D45F0648BFADB23160D90744BF43F0B7
:1051B000200323601DB11023ADE72848E9E72368E9
:1051C00023F020032360F6E70A23A4E71646BBE793
:1051D000336825686169181D30602E061B6801D58B
:1051E000196002E06806FBD519800023236116468A
:1051F000BAE733681A1D32601E68626800213046C3
:10520000FAF7CEFF08B1801B60606368236100235A
:1052100084F84330A8E72369324649464046D047E0
:105220000130ABD023689B0713D4E068039B9842FE
:10523000B8BF1846A4E70123324649464046D04746
:1052400001309BD00135E36803995B1AAB42F2DC75
:10525000EBE7002504F11906F5E700BF1D7700080C
:105260002E770008884210B501EB020402D984426F
:10527000234607D8431EA14207D011F8012B03F89B
:10528000012FF8E70244824200D110BD13F8011D3E
:1052900002F8011DF7E7000038B5064D002304466B
:1052A00008462B60FCF76CF9431C02D12B6803B154
:1052B000236038BD4C0800202DE9F0410746144614
:1052C0000D4621B9BDE8F0411146FFF755BC2AB99A
:1052D000FFF7E6FB25462846BDE8F08100F01AF806
:1052E0008442064602D8B4EB500FF4D82146384623
:1052F000FFF742FC804608B94546ECE7B442224637
:10530000294628BF3246FFF7BDFB29463846FFF73E
:10531000C7FBF1E751F8043C181F002BBCBF0B582A
:10532000C01870472DE9F0478C468E46089E1546FA
:1053300004461946002B40F0D080724547D9B2FA96
:1053400082F74FB1C7F120030EFA07FC20FA03F3EE
:10535000BD4043EA0C0CBC404FEA154EA8B2BCFB62
:10536000FEF8230C0EFB18CC08FB00F943EA0C43B3
:10537000994528D9EB1808F1FF3204D2994502D992
:10538000A8F102022B44A3EB0903A4B2B3FBFEFC79
:105390000EFB1C330CFB00F044EA0344A04214D97A
:1053A0002C190CF1FF3304D2A04202D9ACF1020354
:1053B0002C44241A43EA02401EB1FC40002334600E
:1053C0007360BDE8F0874246DDE76346F1E7002AF7
:1053D00079D0B2FA82F3002B3FD01946C1F12003F5
:1053E00002FA01F52EFA03F20EFA01FE20FA03F397
:1053F00043EA0E034FEA154E00FA01F4B2FBFEFC3D
:10540000AFB20EFB1C201A0C0CFB07F842EA00425C
:1054100090455AD9AA180CF1FF3004D2904502D910
:10542000ACF102002A44A2EB08029BB2B2FBFEFCE4
:105430000EFB1C220CFB07F743EA02439F4246D9AE
:10544000EB180CF1FF3204D29F4202D9ACF10202F8
:105450002B44DB1B42EA004202E0AEEB02030122D6
:105460004FEA154EAFB2B3FBFEFC200C0EFB1C3313
:105470000CFB07F840EA034398452AD9EB180CF1D6
:10548000FF3004D2984502D9ACF102002B44A3EBC3
:105490000803A4B2B3FBFEFC0EFB1C330CFB07F7A6
:1054A00044EA0344A74216D92C190CF1FF3304D265
:1054B000A74202D9ACF102032C44E41B43EA0040AA
:1054C0000F46114678E71F2188E76046ABE7624642
:1054D000BFE76046DBE76346EFE7734506D916B9D9
:1054E000002108466DE7C6E9000EF9E7B3FA83F735
:1054F00087B9734501D3824207D8841A6EEB030340
:1055000001209C461EB900215BE73846FAE7C6E950
:10551000004CF8E7C7F1200CBB4022FA0CF51D4304
:1055200020FA0CF12EFA0CF30EFA07FE41EA0E01F6
:105530004FEA154900FA07F4B3FBF9F81FFA85FEA4
:1055400009FB18300B0C08FB0EFA43EA00439A459E
:1055500002FA07F240D9EB1808F1FF3004D29A455D
:1055600002D9A8F102002B44A3EB0A0389B2B3FBD2
:10557000F9F809FB183308FB0EFE41EA03418E459A
:105580002CD9691808F1FF3304D28E4502D9A8F14D
:105590000203294443EA0040A0FB0298A1EB0E015C
:1055A0004145CE46434602D306D14C4504D2B9EB21
:1055B000020E68EB05030138002EA4D0B4EB0E02F6
:1055C00061EB030101FA0CFC22FA07F34CEA030336
:1055D000F940C6E9003196E74046C5E74346D9E7BA
:1055E000F8B500BFF8BC08BC9E467047F8B500BFD0
:0855F000F8BC08BC9E467047A0
:1055F800101A000010560008000000000B120000EE
:105608005C690008000000000000000000000000C5
:105618000000000000000000000000000000000082
:105628000000000000000000000000000000000072
:10563800000000000000000000000000E003E0039C
:10564800E003E003E003E003E003E003C003C0037A
:10565800C001C001C001C001C0010000000000007D
:10566800E003E003E0030000000000000000000089
:105678003C1E3C1E3C1E3C1E3C1E3C1E3C1E0000AC
:105688000000000000000000000000000000000012
:105698000000000000000000000000000000000002
:1056A80000000000CE01CE03DE039E039C039C078E
:1056B800FF3FFF7F3807380F780F780F780EFFFF0E
:1056C800FFFFF01EF01CE01CE03CE03DE03900006C
:1056D8000000000000000000FC03FE0FEE1FE01EAB
:1056E800E01EE01EE01EE01FE00FE007F003FC01F3
:1056F800FE01FE01FE01FE01FE01FE01FE3DFC3F32
:10570800F00FE001E001000000000000033E07F791
:105718008FE78EE79EE3BCE3B8E7F8E7F0F7E03FF2
:10572800C001FF03FF07F307F30FF31EF33CF33841
:10573800F3787FF03FE00000000000000000000068
:10574800E007F80F780F781F781F781F780FF00F91
:10575800E00F801FC37FC3FBE7F3F7F1F7F0FFF01B
:105768007FF03EF87F7CFF3FEF1F00000000000045
:1057780000000000E003E003E003E003E003C003EF
:10578800C001000000000000000000000000000050
:105798000000000000000000000000000000000001
:1057A80000000000000000003F007C00F001E00164
:1057B800C003C00780078007800F000F000F000F8D
:1057C800000F000F000F800F80078007C007C0037D
:1057D800E001F0017C003F000F000000007E001F88
:1057E800C007C003E001F001F000F000F800780005
:1057F80078007800780078007800F800F000F00071
:10580800F001E001C003C007001F007E007800001F
:10581800E003C003C001CE39FF3F7F3F2003700380
:10582800F807780F3C1F3806000000000000000051
:105838000000000000000000000000000000000060
:105848000000000000000000000000000000000050
:10585800C001C001C001C001C001C001C001FFFFFB
:10586800FFFFC001C001C001C001C001C0010000AC
:105878000000000000000000000000000000000020
:105888000000000000000000000000000000000010
:1058980000000000000000000000E003E003E00357
:1058A800E003E001E001E001C00180030000000026
:1058B80000000000000000000000000000000000E0
:1058C8000000FE3FFE3F0000000000000000000056
:1058D80000000000000000000000000000000000C0
:1058E80000000000000000000000000000000000B0
:1058F80000000000000000000000000000000000A0
:105908000000E003E003E003E00300000000000003
:10591800000000000F000F001E001E003C003C00AD
:1059280078007800F000F000E001E001C003C00357
:1059380080078007000F000F001E001E003C003C7F
:105948000078007800F00000F007F80F7C1F3E3E5A
:105958001E3C1F7C1F7C0F780F780F780F780F780C
:105968000F780F781F7C1F7C1E3C3E3E7C1FF80F73
:10597800F00700000000000000000000F000F00741
:10598800F03FF03FF001F001F001F001F001F0010B
:10599800F001F001F001F001F001F001F001F00177
:1059A800F001FF3FFF3F0000000000000000000082
:1059B800E00FF83F7C3C3C003E003E003E003C00CF
:1059C8003C007C00F800F001E003C0078007000FEE
:1059D800001E003E003CFE3FFE3F000000000000AD
:1059E80000000000F00FF81F7C1C3E003E003E0047
:1059F8003C003C00F800F00FF80F7C003E001E0051
:105A08001E001E001E003E007C1CF81FE01F000048
:105A180000000000000000007800F800F800F8011D
:105A2800F803F807F807780F781E781E783C78781E
:105A38007878FFFFFFFF780078007800780078001A
:105A4800780000000000000000000000FC1FFC1FA0
:105A5800FC1F001E001E001E001E001EE01FF81F77
:105A6800FC007C003E003E001E003E003E003C0064
:105A78007C1CF81FE01F0000000000000000000070
:105A8800FC01FE078E0F001F001E003E003C003C7C
:105A9800F83DFC3F3E7F1F7E0F3C0F3C0F3C0F3C08
:105AA8000F3E1F1E3E1FFC0FF00300000000000009
:105AB80000000000FF3FFF3FFF3F0F001E001E00D9
:105AC8003C0038007800F000F000E001E001C0037D
:105AD800C0038007800F800F000F001F001F000009
